:100000000C942A000C9447000C9447000C94470071
:100010000C9447000C945A070C9447000C9447002A
:100020000C9447000C9447000C9447000C94470034
:100030000C9447000C9433070C9447000C94470031
:100040000C9447000C9447000C9447000C94470014
:100050000C94470011241FBECFE5D8E0DEBFCDBF12
:1000600010E0A0E6B0E0E4EDF5E102C005900D92ED
:10007000A63AB107D9F720E0A6EAB0E001C01D9288
:10008000A53BB207E1F70E9494070C94E80A0C9490
:10009000000010BC83E389B988E98AB986E880BD8D
:1000A00008955D9BFECF8CB908950F931F93CF9356
:1000B0008C01C0E003C00E945100CF5FF801EC0F3B
:1000C000F11D80818111F7CFCF911F910F9108957C
:1000D0008BBB88B38F7D88BB88B38F7B88BB88B38D
:1000E000806888BB2FEF80E792E0215080409040ED
:1000F000E1F700C0000088B38F7788BB089588E3DC
:1001000090E00E9468008FEC97E00197F1F700C043
:10011000000081E090E00E9468008FEC97E001977A
:10012000F1F700C0000082E090E00E9468008FECD0
:1001300097E00197F1F700C0000086E090E00E9490
:1001400068008FEC97E00197F1F700C0000080E8AD
:1001500090E00E9468008FEC97E00197F1F700C0F3
:10016000000008958BBB88B3806288BB88B38F7B07
:1001700088BB88B3806888BB8FEC97E00197F1F764
:1001800000C0000088B38F7788BB08950F931F933A
:10019000CF93DF938C01C0E0D0E003C00E94B20097
:1001A0002196F801EC0FFD1F80818111F7CFDF91BF
:1001B000CF911F910F910895CF93DF93019731F461
:1001C00080E80E946800C0E0D0E008C080EC0E9497
:1001D0006800F9CF80E00E94B2002196C032D105BC
:1001E000CCF3DF91CF91089585B5876085BD81EB14
:1001F00084BD89B7806489BF089583B7896683BF4A
:1002000087B3886087BB08958FB582688FBD8EB530
:100210008B638EBD83EC99E097BD86BD81B380630F
:1002200081BB8BEB90E09BBD8ABD08950E94F400DA
:100230000E94FD000E940401089580E090E005C046
:10024000FC01E355FF4F1082019688309105C4F3FD
:100250001092AC001092AB000895EF92FF920F93B2
:100260001F93CF93DF93CDB7DEB728970FB6F894DF
:10027000DEBF0FBECDBF7C018B0181E090E00E940C
:10028000DC0080E80E9468008BE690E00E94C600D7
:100290008091B000823431F4E114F10419F08DE260
:1002A0000E94B200FF92EF9283E790E09F938F93BA
:1002B000CE0101967C019F938F930E94FE07C70198
:1002C0000E94C60086E790E00E94C60089E790E0A1
:1002D0000E94C6008091B3000F900F900F900F9076
:1002E0000F900F908C3431F40115110519F08DE247
:1002F0000E94B2001F930F9383E790E09F938F9328
:100300008E010F5F1F4F1F930F930E94FE07C801BE
:100310000E94C6000F900F900F900F900F900F90BB
:1003200028960FB6F894DEBF0FBECDBFDF91CF91F8
:100330001F910F91FF90EF90089582E690E00E9448
:10034000D80701969F938F9383E790E09F938F93B5
:1003500082E690E09F938F930E94FE0782E690E0F2
:100360000E94D8070F900F900F900F900F900F9052
:100370000A9734F4E2E6F0E0808190E39083818391
:1003800082E690E00E94D807CC9709F056C0E2E6DA
:10039000F0E080E38083818385E690E00E94D807C7
:1003A00001969F938F9383E790E09F938F9385E6C9
:1003B00090E09F938F930E94FE0785E690E00E9455
:1003C000D8070F900F900F900F900F900F900A97F3
:1003D00034F4E5E6F0E0808190E39083818385E664
:1003E00090E00E94D807CC9741F5E5E6F0E080E385
:1003F0008083818388E690E00E94D80701969F93CE
:100400008F9383E790E09F938F9388E690E09F938C
:100410008F930E94FE0788E690E00E94D8070F9015
:100420000F900F900F900F900F900A9734F4E8E61A
:10043000F0E0808190E39083818386EC0E946800E5
:1004400088E690E00E94C6008AE30E94B20085E63A
:1004500090E00E94C6008AE30E94B20082E690E02B
:100460000E94C60008959C01663439F488B38D7FDC
:1004700088BB88B3846088BB08C0623431F488B319
:100480008B7F88BB88B3826088BB4FEF429FC001DF
:10049000439F900D112464E670E00E94B0076CBF8A
:1004A0000895623569F44FE1489F9001499F300DEE
:1004B0001124C9016DE270E00E94B00765540DC0BF
:1004C000880F991F82959295907F9827807F982713
:1004D00063ED7FEF0E94B007655470E07BBD6ABD9D
:1004E00008959B01992384F4AC01992324F44427B3
:1004F0005527481B590BCA01B9010E94B007A90131
:10050000481B590BCA0108950E94B00708959F9295
:10051000AF92BF92CF92DF92EF92FF920F931F9311
:10052000CF93DF93AC01962E9091A80081E09613B3
:1005300080E021E0911120E0282B41F12091A900D9
:100540003091AA00BA01621B730B9B0122F422278F
:100550003327261B370B79018901332314F40D5FF0
:100560001F4F159507951595079523E0E22220E882
:10057000F222FF2064F531E0E31AF1086CEFE62A7D
:10058000FF24FA947FEFE71AF70A21C0E090A90050
:10059000F090AA00E40EF51E81E0E81AF108870148
:1005A00012F40D5F1F4F159507951595079523E0DC
:1005B000E22220E8F222FF2054F431E0E31AF108AD
:1005C0006CEFE62AFF24FA947FEFE71AF70A2091EE
:1005D000A9003091AA00BA01621B730B9B012AF497
:1005E000991103C07CE4971651F033232CF4991130
:1005F00003C082E5981659F0C12CD12C0FC0CC2431
:10060000C394D12C0F2EF2E59F2EF02D07C0CC24E1
:10061000C394D12C0F2EFCE49F2EF02D5093AA00F2
:100620004093A9002CE49212A3C19235C1F48091A9
:10063000600090916100029683709078992324F471
:1006400001978C6F9F6F019690936100809360007B
:1006500099232CF40496909361008093600080911C
:10066000600090916100019621F410926100109257
:10067000600020E030E07DC08091600090916100DA
:1006800083709078992324F401978C6F9F6F019663
:1006900041E050E0BA0102C0660F771F8A95E2F789
:1006A00065BB7FEF8DEE92E0715080409040E1F7A6
:1006B00000C00000809160009091610001968370FD
:1006C0009078992324F401978C6F9F6F019641E0F5
:1006D00050E0BA0102C0660F771F8A95E2F765BB4A
:1006E0007FEF8DEE92E0715080409040E1F700C0C6
:1006F0000000809160009091610002968370907874
:10070000992324F401978C6F9F6F019641E050E08C
:10071000BA0102C0660F771F8A95E2F765BB7FEFCB
:100720008DEE92E0715080409040E1F700C00000F3
:100730008091600090916100039683709078992376
:1007400024F401978C6F9F6F019641E050E0BA014D
:1007500002C0660F771F8A95E2F765BB7FEF8DEECB
:1007600092E0715080409040E1F700C000002F5FA0
:100770003F4F201731070CF47FCF21E0E216F10440
:1007800081F5809160009091610083709078992349
:1007900024F401978C6F9F6F019621E030E0A9014E
:1007A00002C0440F551F8A95E2F745BB5FEF6DEE1F
:1007B00072E0515060407040E1F700C0000080914D
:1007C000600090916100019683709078992324F4E1
:1007D00001978C6F9F6F01969093610080936000EA
:1007E00029C282E0E816F10409F04FC08091600050
:1007F0009091610083709078992324F401978C6F15
:100800009F6F019621E030E0A90102C0440F551FFF
:100810008A95E2F745BB5FEF6DEE72E051506040A4
:100820007040E1F700C0000080916000909161008D
:10083000019683709078992324F401978C6F9F6FB1
:10084000019621E030E0A90102C0440F551F8A95AE
:10085000E2F745BB5FEF6DEE72E0515060407040D3
:10086000E1F700C000008091600090916100029665
:1008700083709078992324F401978C6F9F6F019671
:100880009093610080936000D5C183E0E816F10485
:1008900009F0D0C1809160009091610083709078E0
:1008A000992324F401978C6F9F6F019621E030E02B
:1008B000A90102C0440F551F8A95E2F745BB5FEFBF
:1008C0006DEE72E0515060407040E1F700C00000F2
:1008D00080916000909161000196837090789923D7
:1008E00024F401978C6F9F6F019621E030E0A901FD
:1008F00002C0440F551F8A95E2F745BB5FEF6DEECE
:1009000072E0515060407040E1F700C000008091FB
:10091000600090916100029683709078992324F48E
:1009200001978C6F9F6F019621E030E0A90102C012
:10093000440F551F8A95E2F745BB5FEF6DEE72E0FD
:10094000515060407040E1F700C0000080916000AD
:1009500090916100039683709078992324F4019715
:100960008C6F9F6F0196909361008093600062C1CD
:100970009C3469F4809160009091610064E070E0C3
:1009800002970E94710290936100809360008091B1
:10099000600090916100019631F483E090E09093C3
:1009A00061008093600080916000909161008330CD
:1009B000910528F404969093610080936000A12C27
:1009C000B12C67C064E070E080916000909161009C
:1009D0000E947102C1E0D0E0AE0102C0440F551F79
:1009E0008A95E2F745BB5FEF6DEE72E051506040D3
:1009F0007040E1F700C000008091600090916100BC
:100A000064E070E001970E9471029E0102C0220F13
:100A1000331F8A95E2F725BB3FEF4DEE52E0315090
:100A200040405040E1F700C000008091600090918C
:100A3000610064E070E002970E947102BE0102C092
:100A4000660F771F8A95E2F765BB7FEF8DEE92E028
:100A5000715080409040E1F700C00000809160003C
:100A60009091610064E070E003970E94710202C0FF
:100A7000CC0FDD1F8A95E2F7C5BB3FEF4DEE52E08C
:100A8000315040405040E1F700C000006FEFA61A1F
:100A9000B60AA016B1060CF495CF71E0E716F10482
:100AA00039F564E070E080916000909161000E94EF
:100AB000710221E030E002C0220F331F8A95E2F775
:100AC00025BB8FEF9DEE22E0815090402040E1F762
:100AD00000C00000809160009091610064E070E0CF
:100AE00001970E9471029093610080936000A2C000
:100AF00032E0E316F10409F040C064E070E0809158
:100B00006000909161000E947102C1E0D0E0AE01EE
:100B100002C0440F551F8A95E2F745BB5FEF6DEEAB
:100B200072E0515060407040E1F700C000008091D9
:100B300060009091610064E070E001970E94710292
:100B400002C0CC0FDD1F8A95E2F7C5BB9FEF2DEEEB
:100B500032E0915020403040E1F700C00000809129
:100B600060009091610064E070E002970E94710261
:100B700090936100809360005DC043E0E416F1044F
:100B800009F058C064E070E08091600090916100CD
:100B90000E947102C1E0D0E0BE0102C0660F771F63
:100BA0008A95E2F765BB7FEF8DEE92E07150804051
:100BB0009040E1F700C000008091600090916100DA
:100BC00064E070E001970E9471029E0102C0220F52
:100BD000331F8A95E2F725BB3FEF4DEE52E03150CF
:100BE00040405040E1F700C00000809160009091CB
:100BF000610064E070E002970E94710202C0CC0FB5
:100C0000DD1F8A95E2F7C5BB7FEF8DEE92E0715054
:100C100080409040E1F700C000008091600090911A
:100C2000610064E070E003970E947102909361009C
:100C300080936000CA94CD2881F532E593121CC0E0
:100C40008CE48093A80080916000909161000296EE
:100C500083709078992324F401978C6F9F6F01968D
:100C600090936100809360009923CCF40496909354
:100C700061008093600013C082E58093A80080919A
:100C800060009091610064E070E002970E94710240
:100C9000909361008093600002C09092A800DF9161
:100CA000CF911F910F91FF90EF90DF90CF90BF9069
:100CB000AF909F900895CF92DF92EF92FF920F93A3
:100CC0001F93CF93DF93CDB7DEB727970FB6F89476
:100CD000DEBF0FBECDBF8D3009F09EC08091AB004E
:100CE0009091AC0009972CF085E890E00E945500A7
:100CF00090C02091AD00822F90E0C0970A9708F035
:100D000084C03091AE00832F90E0C0970A9708F01E
:100D10007CC04091AF00842F90E0C0970A9708F004
:100D200074C05091B100852F90E0C0970A9708F0E9
:100D30006CC06091B200862F90E0C0970A9708F0CF
:100D400064C08091B000863419F0823409F05DC02F
:100D50008091B300823519F08C3409F056C080912F
:100D6000B400853409F051C05D836E831F822983EE
:100D70003A834B831C82CE0101960E94D8077C01E6
:100D8000CE0105960E94D8078C0185E6E816F1048D
:100D9000BCF50E321105A4F5B801C7010E942D0162
:100DA0000F2EFDEACF2EF0E0DF2EF02DF60163814D
:100DB00070E0C7010E943302F60166818091A800AD
:100DC000681729F00115110521F490E003C090E0A7
:100DD00001C091E081E02091A9003091AA00201784
:100DE000310709F480E0892BA1F070E0C8010E946E
:100DF00087026091B30070E0C8010E94510209C0EF
:100E000085E890E00E94550004C085E890E00E94CB
:100E100055000E941D0118C02091AB003091AC001C
:100E2000283031055CF4F901E355FF4F80832F5FD3
:100E30003F4F3093AC002093AB0006C02F5F3F4F75
:100E40003093AC002093AB0027960FB6F894DEBF2A
:100E50000FBECDBFDF91CF911F910F91FF90EF900B
:100E6000DF90CF9008951F920F920FB60F9211242A
:100E70002F933F934F935F936F937F938F939F93A2
:100E8000AF93BF93EF93FF935F9BFECF8CB10E9414
:100E90005B06FF91EF91BF91AF919F918F917F91F1
:100EA0006F915F914F913F912F910F900FBE0F90D7
:100EB0001F9018951F920F920FB60F9211242F9327
:100EC0003F934F935F936F937F938F939F93AF93D2
:100ED000BF93EF93FF938091A6009091A700019696
:100EE0009093A7008093A60081EB84BD8091A6001B
:100EF0009091A7008436910534F00E949D011092D4
:100F0000A7001092A600FF91EF91BF91AF919F9122
:100F10008F917F916F915F914F913F912F910F90A2
:100F20000FBE0F901F9018950E9449008FEF8ABB4B
:100F300080EE87BB87B3866087BB84B38F6084BB3A
:100F40000E947F008CE00E94680080EC0E94680094
:100F500086E990E00E94C6000E9416017894FFCFB7
:100F600097FB072E16F4009407D077FD09D00E9456
:100F7000C40707FC05D03EF4909581959F4F0895D6
:100F8000709561957F4F0895AA1BBB1B51E107C067
:100F9000AA1FBB1FA617B70710F0A61BB70B881F09
:100FA000991F5A95A9F780959095BC01CD01089598
:100FB000FC0188279927E89421912032E9F3293010
:100FC00010F02E30C8F32B3241F02D3239F46894F2
:100FD00004C00E94F607820F911D219120532A30F0
:100FE000C0F31EF4909581959F4F08957AE0979FE6
:100FF000902D879F802D910D11240895AEE0B0E0D3
:10100000E4E0F8E00C94BF0A0D891E8986E08C8329
:101010001A8309838FEF9FE79E838D83AE01475E1E
:101020005F4F6F89788DCE0101960E942008EF8175
:10103000F885E00FF11F10822E96E4E00C94DB0A95
:10104000ABE0B0E0E6E2F8E00C94B10A6C017B01A1
:101050008A01FC0117821682838181FFCCC1CE01F7
:1010600001963C01F6019381F70193FD859193FF71
:1010700081917F01882309F4BAC1853239F493FD47
:10108000859193FF81917F01853229F4B60190E02B
:101090000E94170AE7CF912C212C312CFFE1F31588
:1010A000D8F08B3279F038F4803279F08332A1F4C1
:1010B000232D20611DC08D3261F0803369F4232D12
:1010C000216016C0832D8260382EE32DE4603E2E11
:1010D0002AC0F32DF8601DC037FC2DC020ED280F6D
:1010E0002A3040F08E32B9F436FC81C1232D2064C1
:1010F000322E19C036FE06C08AE0989E200D1124BB
:10110000922E11C0EAE02E9E200D1124222EF32DE6
:10111000F0623F2E08C08C3621F4832D8068382E73
:1011200002C0883641F4F70193FD859193FF8191C8
:101130007F018111B3CF982F9F7D9554933028F470
:101140000C5F1F4F9FE399830DC0833631F08337C7
:1011500071F0833509F059C021C0F801808189837D
:101160000E5F1F4F88248394912C530113C02801D4
:10117000F2E04F0E511CF801A080B18036FE03C092
:10118000692D70E002C06FEF7FEFC5010E940C0A6D
:101190004C018201F32DFF773F2E16C0280122E07B
:1011A000420E511CF801A080B18036FE03C0692DAB
:1011B00070E002C06FEF7FEFC5010E94010A4C0191
:1011C000F32DF0683F2E820133FC1BC0822D90E08E
:1011D00088169906B0F4B60180E290E00E94170AE2
:1011E0002A94F4CFF50137FC859137FE81915F0198
:1011F000B60190E00E94170A21102A9421E0821A79
:1012000091088114910471F7E8C0843611F0893691
:1012100041F5F80137FE07C06081718182819381B9
:101220000C5F1F4F08C060817181072E000C880B76
:10123000990B0E5F1F4FF32DFF763F2E97FF09C0CE
:1012400090958095709561957F4F8F4F9F4FF06877
:101250003F2E2AE030E0A3010E94530A882E861810
:1012600045C0853731F4232D2F7EB22E2AE030E0A1
:1012700025C0932D997FB92E8F36C1F018F488358B
:1012800079F0B5C0803719F0883721F0B0C0E92F68
:10129000E061BE2EB4FE0DC0FB2DF460BF2E09C070
:1012A00034FE0AC0292F2660B22E06C028E030E0A6
:1012B00005C020E130E002C020E132E0F801B7FED5
:1012C00007C060817181828193810C5F1F4F06C0CE
:1012D0006081718180E090E00E5F1F4FA3010E944A
:1012E000530A882E8618FB2DFF773F2E36FE0DC041
:1012F000232D2E7FA22E891458F434FE0BC032FC0D
:1013000009C0832D8E7EA82E05C0B82CA32C03C047
:10131000B82C01C0B92CA4FE0FC0FE01E80DF11DD0
:101320008081803321F49A2D997EA92E09C0A2FED6
:1013300006C0B394B39404C08A2D867809F0B394A0
:10134000A3FC11C0A0FE06C0B21488F4280C922C95
:101350009B180EC0B21460F4B60180E290E00E94C7
:10136000170AB394F7CFB21418F42B1802C0982CB4
:10137000212CA4FE10C0B60180E390E00E94170A61
:10138000A2FE17C0A1FC03C088E790E002C088E578
:1013900090E0B6010CC08A2D867859F0A1FE02C0FB
:1013A0008BE201C080E2A7FC8DE2B60190E00E94D2
:1013B000170A891438F4B60180E390E00E94170AF6
:1013C0009A94F7CF8A94F301E80DF11D8081B6015C
:1013D00090E00E94170A8110F5CF222009F442CE36
:1013E000B60180E290E00E94170A2A94F6CFF60137
:1013F0008681978102C08FEF9FEF2B96E2E10C94DC
:10140000CD0AFC010590615070400110D8F780951D
:1014100090958E0F9F1F0895FC01615070400190C0
:101420000110D8F7809590958E0F9F1F08950F9308
:101430001F93CF93DF93FB01238121FD03C08FEF27
:101440009FEF2CC022FF16C0468157812481358131
:101450004217530744F4A081B1819D012F5F3F4F94
:10146000318320838C93268137812F5F3F4F3783D1
:10147000268314C08B01EC01FB010084F185E02D73
:101480000995892BE1F6D80116968D919C911797B5
:10149000019617969C938E931697CE01DF91CF916C
:1014A0001F910F910895FA01AA27283051F1203198
:1014B00081F1E8946F936E7F6E5F7F4F8F4F9F4FE8
:1014C000AF4FB1E03ED0B4E03CD0670F781F891F2A
:1014D0009A1FA11D680F791F8A1F911DA11D6A0FF8
:1014E000711D811D911DA11D20D009F468943F91AB
:1014F0002AE0269F11243019305D3193DEF6CF01AA
:101500000895462F4770405D4193B3E00FD0C9F76F
:10151000F6CF462F4F70405D4A3318F0495D31FDDC
:101520004052419302D0A9F7EACFB4E0A69597952F
:10153000879577956795BA95C9F700976105710505
:1015400008959B01AC010A2E06945795479537954F
:101550002795BA95C9F7620F731F841F951FA01DA9
:1015600008952F923F924F925F926F927F928F9247
:101570009F92AF92BF92CF92DF92EF92FF920F9322
:101580001F93CF93DF93CDB7DEB7CA1BDB0B0FB62C
:10159000F894DEBF0FBECDBF09942A8839884888E9
:1015A0005F846E847D848C849B84AA84B984C8847F
:1015B000DF80EE80FD800C811B81AA81B981CE0F76
:1015C000D11D0FB6F894DEBF0FBECDBFED0108955B
:0415D000F894FFCFBD
:1015D400FFFF3030003030003030005370656564F8
:1015E4003A2000256400252000446972656374690B
:1015F4006F6E3A2000494E56414C4944204D4553A4
:10160400534147450D0054696D653A2030303A30F6
:06161400303A3030000006
:00000001FF
